:020000040800F2
:10000000800A0020550200089302000895020008AB
:1000100097020008990200089B02000800000000F7
:100020000000000000000000000000009D02000829
:100030009F02000800000000A1020008B9070008A4
:10004000A5020008A5020008A5020008A5020008F4
:10005000A5020008A5020008A5020008A5020008E4
:10006000A5020008A5020008A5020008A5020008D4
:10007000A5020008A5020008A5020008A5020008C4
:10008000A5020008A5020008A5020008A5020008B4
:10009000A5020008A5020008A5020008A5020008A4
:1000A000A5020008A5020008A5020008A502000894
:1000B000A5020008A5020008A5020008AD0400087A
:1000C000A9040008A5020008A5020008A50200086E
:1000D000A5020008A5020008A5020008A502000864
:1000E000A5020008A5020008A5020008A502000854
:1000F000A5020008A5020008A5020008A502000844
:10010000A5020008A5020008A5020008A502000833
:10011000A5020008A5020008A5020008A502000823
:10012000A5020008A5020008A5020008A502000813
:10013000A5020008A5020008A5020008A502000803
:10014000A5020008A5020008A5020008A5020008F3
:10015000A5020008A5020008A5020008A5020008E3
:10016000A5020008A5020008A5020008A5020008D3
:10017000A5020008A5020008A50200080000000072
:10018000A5020008A502000800F002F800F052F8ED
:1001900014A696E8000CB244B344DA4501D100F04D
:1001A00049F8BAE80F000FA696E83000A5EB040561
:1001B00004EB0607AAEB0704A7F101074FEA1515A0
:1001C0004FEA3414A4F10104AC4201D300F032F838
:1001D00013F0010F18BFFB1A43F0010300F001F800
:1001E000DBE71847D02D0000F02D0000103A24BFA7
:1001F00078C878C1FAD8520724BF30C830C144BF8C
:1002000004680C6070470000704700000023002461
:1002100000250026103A28BF78C1FBD8520728BF16
:1002200030C148BF0B6070471FB500F057FE1FBDBF
:1002300010B510BD00F002F91146FFF7F5FF00F010
:1002400055FB00F020F903B4FFF7F2FF03BC00F008
:1002500023F9000017481849184B99423CBF50F841
:10026000042B41F8042BF8D3154B16494FF000022C
:100270008B4238BF43F8042BFAD3DFF84C000168F7
:1002800041F470010160BFF34F8FBFF36F8F0F48D0
:100290000047FEE7FEE7FEE7FEE7FEE7FEE7FEE7D4
:1002A000FEE7FEE7FEE7000009480A490A4A0B4B51
:1002B00070470000D82F0008000000201000002028
:1002C00010000020800A002088ED00E0890100086D
:1002D00080040020800A0020800600208006002084
:1002E000032A40F2308010F0030C00F0158011F862
:1002F000013BBCF1020F624498BF11F801CB00F83A
:10030000013B38BF11F8013BA2F1040298BF00F88D
:1003100001CB38BF00F8013B11F0030300F0578018
:10032000083AC0F0088051F8043B083A51F804CB71
:10033000A0E80810F5E7121D5CBF51F8043B40F837
:10034000043BAFF30080D20724BF11F8013B11F842
:1003500001CB48BF11F8012B24BF00F8013B00F886
:1003600001CB48BF00F8012B704702F0FF0343EABE
:10037000032242EA024200F002B84FF0000200B548
:10038000134694469646203922BFA0E80C50A0E8B8
:100390000C50B1F12001BFF4F7AF090728BFA0E866
:1003A0000C5048BF0CC05DF804EB890028BF40F832
:1003B000042B08BF704748BF20F8022B11F0804F74
:1003C00018BF00F8012B704770477047704710B591
:1003D000203AC0F00B80B1E81850A0E81850B1E8FE
:1003E0001850A0E81850203ABFF4F5AF5FEA027C3D
:1003F00024BFB1E81850A0E8185044BF18C918C06D
:10040000BDE810405FEA827C24BF51F8043B40F80D
:10041000043B08BF7047D20728BF31F8023B48BFF2
:1004200011F8012B28BF20F8023B48BF00F8012B30
:100430007047000000487047100000207546FFF725
:10044000F9FFAE4605006946534620F00700854691
:1004500018B020B5FFF728FFBDE820404FF0000698
:100460004FF000074FF000084FF0000BAC46ACE82F
:10047000C009ACE8C009ACE8C009ACE8C00921F08B
:1004800007018D46704710B50446AFF30080204643
:10049000BDE81040FFF7D7BE01491820ABBEFEE70C
:1004A00026000200704700007047000070470000FF
:1004B00041F24C00C4F20200016841F00201016007
:1004C00040F20040C4F60000016821F47021016090
:1004D000016841F420210160416A21F0FF0141627D
:1004E000416A41F044014162816821F470218160D8
:1004F000816841F4A0218160C16821F47021C1604C
:10050000C16841F4A021C160416841F4C0714160FB
:100510007047000010B545F20041C4F20001884266
:100520001DD045F60041C4F2000188420ED045F6C8
:100530000001C4F2000188422ED16FF4800C4FF408
:10054000804E6FF440414FF4800310E06FF4000CD4
:100550004FF4803E6FF440314FF4000307E06FF436
:10056000001C4FF4805E6FF440514FF4001341F2D1
:100570003802C4F20202146A1C431462146D214052
:100580001165116D41EA0E01116511681943116081
:10059000116801EA0C011160016821F0010101609C
:1005A000016821F480510160016821F470610160EB
:1005B000016841F08001016000210161016921F0C1
:1005C00070410161016941F0E0410161016941F05F
:1005D0000E010161016941F460610161016941F449
:1005E00080110161016941F400310161816821F4E8
:1005F0000041816048F252018160016821F40031BC
:100600000160816821F400418160416821F400614A
:100610004160416841F000714160416841F400412E
:100620004160016841F00101016010BD002A4FF0F6
:10063000FF0C18BF002B03D14FFA8CF0704700BF9E
:10064000D0F818C05FEA0C4CFAD480B5D0F804C0DA
:1006500049F6000ECFF6004E0CEA0E0C41EA0341BB
:10066000614401F500514160BDE8804063B14FF045
:10067000000C00BF8169C907FCD012F80C100CF106
:10068000010C9C458162F5D1816949065CBF816995
:100690005FEAC161F8D58169C90642BF4FF0FF0C1E
:1006A0004FFA8CF07047416841F48041416000BFCF
:1006B00081698906FCD54FF0000C4FFA8CF0704729
:1006C00041F24C00C4F2020001684FF6FF4241F0D3
:1006D0000401016040F60000C4F600000168CFF696
:1006E0000F4221F0FF010160016841F055010160F6
:1006F000016811400160C1681140C160704700008D
:100700002DE9F04181B040F6140042F6A27C42F699
:100710009E71C4F600004FF0000E0FF298080123FE
:10072000C0F6000CC0F60001002400BF066846F0C9
:100730000F06066018F80460076803FA06F627EA51
:1007400006060660CDF800E003E000BF009E01361B
:100750000096009EB6F57A7FF8DB50F8046CF6063A
:1007600002D40027002611E0002600BF032E13D07C
:100770008A1950F8047C5278013627FA02F2D2071F
:10078000F4D1721E0027022A88BF01270CEB8402D5
:10079000955D37B909E000BF0027022E88BF012709
:1007A0001FB10134042CC1D1FF25E8B201B0BDE86E
:1007B000F08100BF0001020340F27840C2F2000065
:1007C00001680129B8BF70470168013901607047AD
:1007D00042F20001C4F20201086820F0070008603C
:1007E0000A6841F2000042F00202C4F202000A600C
:1007F000016841F48071016001684905FCD54168D8
:1008000021F0F8514160416841F080514160016838
:1008100021F08071016000BF01688901FCD4C168CA
:10082000142221F00301C160C16841F00201C160DE
:10083000C16862F30E21C160C168012262F3061132
:10084000C160C16821F0C061C160C16841F08071C0
:10085000C160016841F08071016000BF01688901D9
:10086000FCD5816821F003018160816841F00301BA
:10087000816000BF816801F00C010C29FAD1816808
:1008800021F0F0018160816821F4E061816081687C
:1008900021F460518160016821F08061016000BF36
:1008A00001684901FCD4016921F4FE41016101693B
:1008B00041F4C0510161016941F4003101610169F4
:1008C00041F480310161016841F08061016000BF45
:1008D00001684901FCD5D0F8881021F44001C0F826
:1008E0008810016E41F400110166704794B004ACA9
:1008F00020464021FFF741FD46F64560C6F27450A0
:10090000049043F67220ADF814004EF21000CEF2BF
:100910000000002543F67F61056041604EF62351DB
:10092000CEF20001F0220A708560016841F00401F6
:100930000160016841F002010160016841F00101BC
:100940000160FFF745FFFFF7B3FD45F20040C4F239
:100950000000FFF7DFFD00F065F8002000F054F81C
:100960000220002100F0BEF940F20800C2F20000AF
:10097000D0E900122046012300F096FA00F0BEF9FB
:10098000FFF79EFE40F2784740F200094FF0200842
:10099000FF24C2F200074FF4C876EA46C2F200090B
:1009A0000395CDE90155CDF8008000BFFFF7A8FE03
:1009B000E1B288421FD0FF281ED02A2806D1044663
:1009C000012DA4BF013D0AF8058005E004460E2D67
:1009D000DCBF0AF805000135002000F015F8002002
:1009E000002100F07FF9D9E900125046012300F000
:1009F0005BFA00F083F920463E6000BF39680029A9
:100A0000FCD10446D2E7000080B50246002840F23F
:100A10007800C2F200004FF4806118BFFF22FFF798
:100A2000A4FC80BDF0B583B000250195019948F282
:100A3000A060C0F20100814206D200BF01990131DD
:100A4000019101998142F9D345F2004440F27406C4
:100A50004FF42E40C4F20004C2F20006ADF80A00C2
:100A60000DF10A022046782102233570FFF7DEFDE2
:100A70004FF400570DF10A02204678210223ADF809
:100A80000A70FFF7D3FD0DF10A02204678210223F8
:100A9000ADF80A50FFF7CAFD4FF43040ADF80A0038
:100AA0000DF10A02204678210223FFF7BFFD4FF423
:100AB0004840ADF80A000DF10A02204678210223D1
:100AC000FFF7B4FD0DF10A02204678210223ADF8AC
:100AD0000A50FFF7ABFD4FF48050ADF80A000DF15E
:100AE0000A02204678210223FFF7A0FD4FF4804040
:100AF000ADF80A000DF10A02204678210223FFF723
:100B000095FD4FF40140ADF80A000DF10A022046B0
:100B100078210223FFF78AFD4FF47F40ADF80A00E9
:100B20000DF10A02204678210223FFF77FFD4FF4E2
:100B30002140ADF80A000DF10A0220467821022377
:100B4000FFF774FD4FF42640ADF80A000DF10A02DC
:100B5000204678210223FFF769FD4FF42840ADF8C5
:100B60000A000DF10A02204678210223FFF75EFDFC
:100B70004FF47C50ADF80A000DF10A0220467821AE
:100B80000223FFF753FD4FF42440ADF80A000DF1A6
:100B90000A02204678210223FFF748FD4FF4534014
:100BA000ADF80A000DF10A02204678210223FFF772
:100BB0003DFD0DF10A02204678210223ADF80A50CE
:100BC000FFF734FD4FF45540ADF80A000DF10A026D
:100BD000204678210223FFF729FD4FF47040ADF83D
:100BE0000A000DF10A02204678210223FFF71EFDBC
:100BF0004FF45940ADF80A000DF10A022046782161
:100C00000223FFF713FD4FF40850ADF80A000DF171
:100C10000A02204678210223FFF708FD4FF45A40CC
:100C2000ADF80A000DF10A02204678210223FFF7F1
:100C3000FDFC4FF49050ADF80A000DF10A02204679
:100C400078210223FFF7F2FC4FF45B40ADF80A0075
:100C50000DF10A02204678210223FFF7E7FC0DF18F
:100C60000A02204678210223ADF80A70FFF7DEFC65
:100C70004FF40D40ADF80A000DF10A02204678212C
:100C80000223FFF7D3FC4FF4A050ADF80A000DF19A
:100C90000A02204678210223FFF7C8FC01203070A9
:100CA0004FF42F40ADF80A000DF10A0220467821DA
:100CB0000223FFF7BBFC40F27800C2F200004FF4C1
:100CC0008061FFF75AFB00F019F840F27000C2F2A1
:100CD0000000058040F27200C2F20000058003B0FF
:100CE000F0BD000040F27002C2F20002108040F23B
:100CF0007200C2F200000180704700002DE9F04F41
:100D0000ADF2044D40F2780045F20044C2F200001A
:100D10000DF10306C4F20004A0F1800506F1010BF9
:100D20004FF000084FF480594FF0400A002700BFF1
:100D300047F0B0008DF804002046782132460223A7
:100D40008DF80380FFF772FC20467821324602239B
:100D5000ADF80380FFF76AFC204678213246022373
:100D6000ADF80390FFF762FC803558462946802293
:100D70008DF803A0FFF7B4FA20467821324681238C
:100D8000FFF754FC0137082FD2D10DF2044D00F0CB
:100D900000B830BCBDE8C08F2DE9F04F84B0A0F1A1
:100DA0007F0717F15F0F14D340F27007C2F20007FC
:100DB000B7F800E05EFA81F7802F0AD840F2720798
:100DC000C2F200073E880F0A029656FA87F6402EB6
:100DD00003D9002004B000F063B80090F8B20028F6
:100DE000C9B2039051D000984FF0000CA0F1200739
:100DF0000398474302EB470040F27807C2F200072E
:100E0000019004E003980CF1010C84453DD00029C9
:100E1000F8D001984FF0000A30F81C2002980CEB33
:100E2000000505F007060120B0404FF47866ECB2EB
:100E300080F0FF0806EA05190AE000BF0BEB090580
:100E40007E5D06EA08067E550AF1010A5145D9D0B1
:100E50000EEB0A0502FA0AF65FFA85FB360405F086
:100E6000800507D53F2CEFD8002DEDD1012BE5D122
:100E700006E000BF3F2CE7D8002DE5D1002BDDD1E7
:100E80000BEB09057E5D0643DDE70EEB010040F24A
:100E90007001C2F2000108805DF8100B00F000B88C
:100EA00030BCBDE8C08F0000F0B581B01C460378AF
:100EB00083B115460E46471CD8B231462A46234612
:100EC000FFF76AFF17F8011C884204D117F8013BAD
:100ED000002BF1D10021084601B0F0BDF1EE100A5F
:100EE0004FF6FF71C0F2C03120EA010040F04070BF
:100EF000E1EE100A70470000000000000000000052
:100F000000000000000000000000000000000000E1
:100F1000000000000000000000000000000C000CB9
:100F2000000C000C000C000C000C000C000C000C61
:100F3000000C0000000C000C00000000000000008D
:100F4000001B001B001B001B001B0000000000001A
:100F50000000000000000000000000000000000091
:100F6000000000008019801980198019C07FC07F9F
:100F700080190033C07FC07F00330033003300335B
:100F80000000000000000000001E003F807580652A
:100F90000074003C001E0007800580658065807538
:100FA000003F001E0004000400000000007000D894
:100FB00040D8C0D880D900730006000C801BC03612
:100FC000C066C046C00680030000000000000000AC
:100FD000001E003F003300330033001E000CC03CF5
:100FE000C066806380618063C03E801C000000009A
:100FF00000000000000C000C000C000C000C0000B5
:1010000000000000000000000000000000000000E0
:101010000000000000008000000100030006000640
:101020000004000C000C000C000C000C000C000470
:1010300000060006000300018000002000100018D8
:10104000000C000C00040006000600060006000666
:1010500000060004000C000C001800100020000026
:10106000000C002D003F001E0033000000000000B7
:101070000000000000000000000000000000000070
:101080000000000000000000000C000C000C000C30
:10109000C0FFC0FF000C000C000C000C00000000A2
:1010A0000000000000000000000000000000000040
:1010B0000000000000000000000000000000000030
:1010C000000C000C000400040008000000000000F8
:1010D000000000000000000000000000001E001ED4
:1010E0000000000000000000000000000000000000
:1010F00000000000000000000000000000000000F0
:101100000000000000000000000C000C00000000C7
:1011100000000000000300030003000600060006B4
:101120000006000C000C000C000C00180018001841
:101130000000000000000000001E003F003380613E
:1011400080618061806D806D80618061806100332D
:10115000003F001E00000000000000000006000E1E
:10116000001E0036002600060006000600060006E7
:101170000006000600060006000000000000000057
:10118000001E003F807380618061800100030006C3
:10119000000C001800300060807F807F000000009D
:1011A00000000000001C003E006300630003000E0E
:1011B000000E00038001800180618073003F001EEB
:1011C00000000000000000000006000E000E001EDF
:1011D000001E0016003600360066807F807F000605
:1011E000000600060000000000000000007F007FF5
:1011F000006000600060006E007F806380018001FD
:1012000080618073003F001E0000000000000000AD
:10121000001E003F803380610060006E007F80739D
:101220008061806180618033003F001E000000000B
:1012300000000000807F807F800100030003000623
:101240000006000C000C000C000800180018001824
:101250000000000000000000001E003F806380616D
:1012600080610021001E003F80618061806180619B
:10127000003F001E0000000000000000001E003FB4
:1012800000738061806180618073803F801D800178
:1012900080610073003F001E00000000000000009D
:1012A0000000000000000000000C000C0000000026
:1012B0000000000000000000000C000C0000000016
:1012C0000000000000000000000000000000000C12
:1012D000000C00000000000000000000000C000CEA
:1012E000000400040008000000000000000080006E
:1012F0008003000E003800600038000E800380007C
:1013000000000000000000000000000000000000DD
:1013100000000000807F807F00000000807F807FD1
:1013200000000000000000000000000000000000BD
:1013300000000000000000400070001C0007800159
:101340000007001C007000400000000000000000CA
:1013500000000000001F803FC071C060C000C001DD
:1013600080030007000E000C000C0000000C000CB5
:101370000000000000000000001E003F803180716E
:101380008063806F806D806D806F80670060003249
:10139000003E001C0000000000000000000E000ED7
:1013A000001B001B001B001B80318031803F803FF1
:1013B0008031C060C060C06000000000000000001C
:1013C000007C007E0063006300630063007E007E9B
:1013D0000063806180618063007F007E0000000008
:1013E00000000000001E003F80318061006000604E
:1013F000006000600060006080618031003F001E7E
:101400000000000000000000007C007F006380639B
:1014100080618061806180618061806100630063C0
:10142000007E007C0000000000000000807F807FC4
:101430000060006000600060007F007F006000606E
:1014400000600060807F807F0000000000000000DE
:10145000807F807F0060006000600060007F007F10
:10146000006000600060006000600060000000003C
:1014700000000000001E003F8031806100600060BD
:10148000006080638063806180618031803F001EE6
:1014900000000000000000008061806180618061C8
:1014A00080618061807F807F8061806180618061F8
:1014B000806180610000000000000000003F003FEC
:1014C000000C000C000C000C000C000C000C000CBC
:1014D000000C000C003F003F000000000000000076
:1014E00080018001800180018001800180018001F4
:1014F0008001806180618073003F001E0000000059
:1015000000000000C0608061006300660066006C3F
:101510000078007C00660066006380618061C060C6
:10152000000000000000000000600060006000603B
:1015300000600060006000600060006000600060AB
:10154000807F807F0000000000000000C071C0713B
:10155000C07BC07AC06AC06AC06EC064C060C06030
:10156000C060C060C060C0600000000000000000FB
:1015700080718071807980798079806D806D806DD7
:1015800080658067806780678063806300000000FB
:1015900000000000001E003F003380618061806118
:1015A000806180618061806180610033003F001E46
:1015B0000000000000000000007E007F806380616A
:1015C000806180618063007F007E00600060006059
:1015D000006000600000000000000000001E003FEE
:1015E000003380618061806180618061806180659D
:1015F00080670033803F401E0000000000000000B4
:10160000007E007F8063806180618063007F007E58
:1016100000660063006380618061C06000000000BC
:1016200000000000000E001F8031803100300038C3
:10163000001E00078003806180618031003F001E32
:101640000000000000000000C0FFC0FF000C000C04
:10165000000C000C000C000C000C000C000C000C2A
:10166000000C000C000000000000000080618061A0
:101670008061806180618061806180618061806162
:1016800080618073003F001E000000000000000029
:10169000C060C060C060803180318031001B001BA1
:1016A000001B001B000E000E000E000400000000D6
:1016B00000000000C0C0C0C0C0C0C0C0C0C0C0CC1E
:1016C000804C804C805E805280528073806180614B
:1016D0000000000000000000C0C080608061003396
:1016E000003B001E000C000C001E001F003B807120
:1016F0008061C0C00000000000000000C0C0806128
:10170000806100330033001E001E000C000C000C32
:10171000000C000C000C000C000000000000000099
:10172000803F803F8001000300030006000C000C96
:101730000018001800300060807F807F00000000EB
:101740000000000F000F000C000C000C000C000C3F
:10175000000C000C000C000C000C000C000C000C29
:10176000000C000F000F0000001800180018000CFB
:10177000000C000C000C000600060006000600032A
:1017800000030003000000000000001E001E000611
:101790000006000600060006000600060006000619
:1017A00000060006000600060006001E001E0000DF
:1017B000000C000C001E00120033003380618061B9
:1017C0000000000000000000000000000000000019
:1017D0000000000000000000000000000000000009
:1017E00000000000000000000000000000000000F9
:1017F0000000E0FF0000000000380018000C0000AE
:1018000000000000000000000000000000000000D8
:1018100000000000000000000000000000000000C8
:1018200000000000001F803F80618001801F803F1A
:1018300080618063807FC0380000000000000000ED
:101840000060006000600060006E007F8073806157
:101850008061806180618073007F006E0000000005
:10186000000000000000000000000000001E003F1B
:10187000807380610060006080618073003F001EA3
:101880000000000000000000800180018001800154
:10189000801D803F80738061806180618061807382
:1018A000803F801D000000000000000000000000DC
:1018B00000000000001E003F00738061807F807F79
:1018C00000608071003F001E00000000000000006A
:1018D000C007C00F000C000C807F807F000C000C44
:1018E000000C000C000C000C000C000C00000000B0
:1018F00000000000000000000000801D803F807399
:1019000080618061806180618073803F801D800183
:101910008063007F003E00000060006000600060A7
:10192000006F807F807180618061806180618061F3
:1019300080618061000000000000000000060006D9
:1019400000000000003E003E000600060006000603
:101950000006000600060006000000000000000669
:10196000000600000000003E003E000600060006E3
:101970000006000600060006000600060046007E7F
:10198000003C000000600060006000608061006357
:101990000066006C007C0076006300638061C060BC
:1019A0000000000000000000003E003E00060006AF
:1019B00000060006000600060006000600060006F7
:1019C000000600060000000000000000000000000B
:1019D0000000000080DDC0FFC0CEC0CCC0CCC0CCB9
:1019E000C0CCC0CCC0CCC0CC0000000000000000C7
:1019F0000000000000000000006F807F80718061A7
:101A00008061806180618061806180610000000090
:101A1000000000000000000000000000001E003F69
:101A2000807380618061806180618073003F001EEF
:101A30000000000000000000000000000000006E38
:101A4000007F807380618061806180618073007F2E
:101A5000006E006000600060006000000000000098
:101A60000000801D803F80738061806180618061A3
:101A70008073803F801D8001800180018001000013
:101A800000000000000000000067803F00390030C7
:101A90000030003000300030003000300000000026
:101AA000000000000000000000000000001E803F59
:101AB00080610060007F803F80018061007F001EA8
:101AC00000000000000000000000000800180018DE
:101AD000007F007F00180018001800180018001878
:101AE000801F800F000000000000000000000000C8
:101AF00000000000806180618061806180618061A0
:101B000080618063807F803D000000000000000055
:101B10000000000000000000C06080318031803192
:101B2000001B001B001B000E000E00060000000042
:101B300000000000000000000000000080DD80DDEB
:101B400080DD005500550055007700770022002207
:101B50000000000000000000000000000000000085
:101B6000806100330033001E000C000C001E0033A7
:101B70000033806100000000000000000000000051
:101B8000000080618061803100330033001B001B46
:101B9000001B000E000E000E001C007C00700000F8
:101BA0000000000000000000C07FC07F8001000333
:101BB0000006000C00180030C07FC07F000000004D
:101BC00000008003800700060006000600060006ED
:101BD000000E001C001C000E000600060006000699
:101BE00000068007800300060006000600060006C7
:101BF00000060006000600060006000600060006B5
:101C0000000600060006000600060038003C000C36
:101C1000000C000C000C000C000E00070007000E6A
:101C2000000C000C000C000C000C003C0038000004
:101C30000000000000000000000000008038807FED
:101C4000004700000000000000000000000000004D
:101C50000000000000000000000000000000000084
:101C60000000000000000000000000000000000074
:101C70000000000000000000000000000000000064
:101C8000000000000000E003E003E003E003E003E5
:101C9000E003E003E003C003C003C001C001C001D2
:101CA000C001C001000000000000E003E003E00309
:101CB000000000000000000000003C1E3C1E3C1E16
:101CC0003C1E3C1E3C1E3C1E0000000000000000AC
:101CD0000000000000000000000000000000000004
:101CE0000000000000000000000000000000CE0125
:101CF000CE03DE039E039C039C07FF3FFF7F380754
:101D0000380F780F780F780EFFFFFFFFF01EF01CE2
:101D1000E01CE03CE03DE039000000000000000075
:101D20000000FC03FE0FEE1FE01EE01EE01EE01EA2
:101D3000E01FE00FE007F003FC01FE01FE01FE01E1
:101D4000FE01FE01FE01FE3DFC3FF00FE001E0015F
:101D5000000000000000033E07F78FE78EE79EE3D8
:101D6000BCE3B8E7F8E7F0F7E03FC001FF03FF0787
:101D7000F307F30FF31EF33CF338F3787FF03FE003
:101D800000000000000000000000E007F80F780FDE
:101D9000781F781F781F780FF00FE00F801FC37F28
:101DA000C3FBE7F3F7F1F7F0FFF07FF03EF87F7C3D
:101DB000FF3FEF1F00000000000000000000E003F4
:101DC000E003E003E003E003C003C0010000000003
:101DD0000000000000000000000000000000000003
:101DE00000000000000000000000000000000000F3
:101DF00000003F007C00F001E001C003C007800745
:101E00008007800F000F000F000F000F000F000F62
:101E1000800F80078007C007C003E001F0017C004D
:101E20003F000F000000007E001FC007C003E0015C
:101E3000F001F000F000F8007800780078007800F9
:101E400078007800F800F000F000F001E001C00335
:101E5000C007001F007E00780000E003C003C0013F
:101E6000CE39FF3F7F3F20037003F807780F3C1FF8
:101E70003806000000000000000000000000000024
:101E80000000000000000000000000000000000052
:101E900000000000000000000000C001C001C001FF
:101EA000C001C001C001C001FFFFFFFFC001C001B0
:101EB000C001C001C001C00100000000000000001E
:101EC0000000000000000000000000000000000012
:101ED0000000000000000000000000000000000002
:101EE00000000000E003E003E003E003E001E001A4
:101EF000E001C001800300000000000000000000BD
:101F0000000000000000000000000000FE3FFE3F57
:101F100000000000000000000000000000000000C1
:101F200000000000000000000000000000000000B1
:101F300000000000000000000000000000000000A1
:101F4000000000000000000000000000E003E003CB
:101F5000E003E003000000000000000000000F00AC
:101F60000F001E001E003C003C0078007800F000CE
:101F7000F000E001E001C003C00380078007000F0C
:101F8000000F001E001E003C003C0078007800F0AE
:101F90000000F007F80F7C1F3E3E1E3C1F7C1F7C9C
:101FA0000F780F780F780F780F780F780F781F7CE5
:101FB0001F7C1E3C3E3E7C1FF80FF0070000000017
:101FC000000000000000F000F007F03FF03FF001DB
:101FD000F001F001F001F001F001F001F001F00179
:101FE000F001F001F001F001F001F001FF3FFF3FCF
:101FF00000000000000000000000E00FF83F7C3C03
:102000003C003E003E003E003C003C007C00F800EE
:10201000F001E003C0078007000F001E003E003CF7
:10202000FE3FFE3F00000000000000000000F00F37
:10203000F81F7C1C3E003E003E003C003C00F800C7
:10204000F00FF80F7C003E001E001E001E001E0058
:102050003E007C1CF81FE01F000000000000000094
:1020600000007800F800F800F801F803F807F80716
:10207000780F781E781E783C78787878FFFFFFFF1D
:102080007800780078007800780078000000000080
:10209000000000000000FC1FFC1FFC1F001E001EB3
:1020A000001E001E001EE01FF81FFC007C003E000A
:1020B0003E001E003E003E003C007C1CF81FE01F5E
:1020C00000000000000000000000FC01FE078E0F71
:1020D000001F001E003E003C003CF83DFC3F3E7FE0
:1020E0001F7E0F3C0F3C0F3C0F3C0F3E1F1E3E1F40
:1020F000FC0FF00300000000000000000000FF3FA4
:10210000FF3FFF3F0F001E001E003C00380078001C
:10211000F000F000E001E001C003C0038007800F81
:10212000800F000F001F001F0000000000000000D3
:102130000000F807FC0F3E1F1E1E1E3E1E3E1E1E08
:102140003C1FF80FF007F80FFC1E3E3E1F3C1F7CA3
:102150000F7C0F7C1F3C3E3FFC1FF007000000007F
:10216000000000000000F007F80F7C1E3E3C1E3C03
:102170001F7C1F7C1F7C1F7C1F3C3F3EFF1FEF0707
:102180001F001E001E003E003C00F838F03FE01F1C
:10219000000000000000000000000000000000003F
:1021A000000000000000E003E003E003E0030000A3
:1021B000000000000000000000000000E003E00359
:1021C000E003E00300000000000000000000000049
:1021D00000000000000000000000E003E003E00356
:1021E000E00300000000000000000000000000000C
:1021F000E003E003E003E003E001E001E001C003ED
:102200008003000000000000000000000000030048
:102210000F003F00FC00F003C00F003F00FE003F36
:10222000C00FF003FC003F000F000300000000009F
:10223000000000000000000000000000000000009E
:1022400000000000000000000000FFFFFFFF000092
:1022500000000000FFFFFFFF000000000000000082
:10226000000000000000000000000000000000006E
:1022700000000000000000E000F8007E801FE00782
:10228000F8017E001F007E00F801E007801F007E3D
:1022900000F800E000000000000000000000F01F57
:1022A000FC3F3E381F381F381E001E003C007800DF
:1022B000F000E001C003C003C007C0070000000039
:1022C0000000C007C007C0070000000000000000B9
:1022D0000000F803FE0F1E1F0F3E7F3CFF78EF79D2
:1022E000C773C7F38FF38FF38FF39FF39FF3FF73DE
:1022F000FF7BF779003C1C1FFC0FF8030000000077
:10230000000000000000000000000000E003E00307
:10231000F007F007F007780F780F7C0E3C1E3C1E8C
:102320003E3CFE3FFF3F1F780F780FF007F007F0AD
:10233000000000000000000000000000000000009D
:10234000F83FFC3F3E3C1E3C1E3C1E3C3E3C7C3C61
:10235000F03FF83F7E3C1F3C1F3C0F3C0F3C1F3CB6
:10236000FE3FF83F000000000000000000000000F9
:1023700000000000FF01FF07871F003E003C007CBB
:1023800000780078007800780078007C007C003EBF
:10239000003F831FFF07FF01000000000000000056
:1023A0000000000000000000F07FFC7F7E781F78B6
:1023B0001F780F780F780F780F780F780F780F78D5
:1023C0000F781F781E787E78F87FE07F000000008D
:1023D000000000000000000000000000FF3FFF3F81
:1023E000003E003E003E003E003E003EFE3FFE3FFF
:1023F000003E003E003E003E003E003EFF3FFF3FED
:1024000000000000000000000000000000000000CC
:10241000FF1FFF1F001E001E001E001E001E001ECC
:10242000FF1FFF1F001E001E001E001E001E001EBC
:10243000001E001E00000000000000000000000060
:1024400000000000FE03FF0F871F003E007C007CA1
:10245000007800F800F87FF87FF80F780F7C0F7C89
:102460000F3E8F1FFF0FFE03000000000000000062
:1024700000000000000000001F7C1F7C1F7C1F7CF0
:102480001F7C1F7C1F7C1F7CFF7FFF7F1F7C1F7CAE
:102490001F7C1F7C1F7C1F7C1F7C1F7C000000009A
:1024A000000000000000000000000000FF3FFF3FB0
:1024B000E003E003E003E003E003E003E003E00304
:1024C000E003E003E003E003E003E003FF3FFF3F3E
:1024D00000000000000000000000000000000000FC
:1024E000FC1FFC1F7C007C007C007C007C007C00CE
:1024F0007C007C007C007C007C0078007800F83850
:10250000F03FC03F0000000000000000000000009D
:10251000000000001F3C1E3C3C3C783CF03CE03D91
:10252000E03FC03F803FC03FE03FF03DF03C783CA3
:102530007C3C3E3C1F3C0F3C0000000000000000C3
:102540000000000000000000003E003E003E003E93
:10255000003E003E003E003E003E003E003E003E8B
:10256000003E003E003E003EFF3FFF3F00000000F7
:102570000000000000000000000000001FF81FFC29
:102580001FFC3FFE3FFE3FFE7FFF77FF77FFF7F721
:10259000E7F7E7F3E7F3C7F307F007F007F007F013
:1025A000000000000000000000000000000000002B
:1025B0000F7C0F7C0F7E0F7F0F7F8F7F8F7FCF7FF2
:1025C000EF7BEF79FF79FF78FF787F783F783F786E
:1025D0001F781F78000000000000000000000000CD
:1025E00000000000F007FC1F3E3E1F7C0F780F78B4
:1025F0000FF80FF80FF80FF80FF80FF80F780F78A3
:102600001F7C3E3EFC1FF0070000000000000000A1
:102610000000000000000000FC3FFF3F1F3E0F3E97
:102620000F3E0F3E0F3E1F3E3F3EFC3FF03F003E41
:10263000003E003E003E003E003E003E0000000026
:10264000000000000000000000000000F007FC1F78
:102650003E3E1F7C0F780F780FF80FF80FF80FF839
:102660000FF80FF80F780F781F7C3E3EFC1FF8071D
:102670007C003F000F00030000000000000000008D
:10268000F03FFC3F7E3C3E3C1E3C1E3C3E3C3C3C06
:10269000FC3CF03FE03FF03DF83C7C3C3E3C1E3CC7
:1026A0001F3C0F3C00000000000000000000000084
:1026B00000000000FC07FE1F0E3E003C003C003CFA
:1026C000003EC01FF80FFE037F001F000F000F0029
:1026D0001F203E3CFC3FF01F0000000000000000F7
:1026E0000000000000000000FFFFFFFFE003E00328
:1026F000E003E003E003E003E003E003E003E003C2
:10270000E003E003E003E003E003E0030000000077
:102710000000000000000000000000000F7C0F7CA3
:102720000F7C0F7C0F7C0F7C0F7C0F7C0F7C0F7C51
:102730000F7C0F7C0F7C1E3C1E3C3E3EFC1FF007B6
:102740000000000000000000000000000000000089
:1027500007F007F007F80F780F7C1E3C1E3C1E3E6A
:102760003C1E3C1F781F780FF80FF007F007F007AA
:10277000E003E00300000000000000000000000093
:102780000000000003E003F003F007F0E7F3E7F3D5
:10279000E7F3E773F77BF77FFF7F7F7F7F7F7E7FA6
:1027A0007E3F3E3E3E3E3E3E0000000000000000F8
:1027B000000000000000000007F80F7C1E3E3E3EB7
:1027C0003C1FF80FF007E007E003E003F007F80F05
:1027D0007C0F7C1E3E3C1F780F780FF0000000003D
:1027E00000000000000000000000000007F807786B
:1027F0000F7C1E3C1E3E3C1F780FF80FF007E003D5
:10280000E003E003E003E003E003E003E003E003B0
:1028100000000000000000000000000000000000B8
:10282000FF7FFF7F0F001F003E007C00F800F000DC
:10283000E001E003C007800F000F001E003E007C97
:10284000FF7FFF7F00000000000000000000FF0786
:102850008007800780078007800780078007800740
:102860008007800780078007800780078007800730
:10287000800780078007800780078007FF07FF0722
:10288000000000780078003C003C001E001E000F95
:10289000000F80078007C003C003E001E001F000E3
:1028A000F000780078003C003C001E001E000F0085
:1028B0000F0007000000F07FF000F000F000F000D3
:1028C000F000F000F000F000F000F000F000F00088
:1028D000F000F000F000F000F000F000F000F00078
:1028E000F000F000F07FF07F0000C000C001C001E8
:1028F000E003E003F007F0077807780F380F3C1E7D
:102900003C1E1E3C1E3C0F380F780778000000006C
:1029100000000000000000000000000000000000B7
:1029200000000000000000000000000000000000A7
:102930000000000000000000000000000000000097
:102940000000000000000000FFFFFFFF000000008B
:102950000000F00000000000000000000000000087
:102960000000000000000000000000000000000067
:102970000000000000000000000000000000000057
:102980000000000000000000000000000000000047
:102990000000F80FFC3F7C3C3E003E003E00FE077E
:1029A000FE1F3E3E3E7C3E783E7C7E7CFF3FCF1F3E
:1029B00000000000000000000000003C003C003C63
:1029C000003C003C003CF83DFE3F3E3F1F3E0F3CBC
:1029D0000F3C0F3C0F3C0F3C0F3C1F3C1E3C3E3F4E
:1029E000FC3FF03B00000000000000000000000081
:1029F00000000000000000000000FE03FF0F871F22
:102A0000003E003E003C007C007C007C003C003E20
:102A1000003E871FFF0FFE030000000000000000C3
:102A200000001F001F001F001F001F001F00FF07E6
:102A3000FF1F3F3E1F3C1F7C1F7C1F7C1F781F78A1
:102A40001F7C1F7C3F3C7F3EFF1FDF0F000000000C
:102A50000000000000000000000000000000000076
:102A60000000F803FC0F3E1F1E3E1F3C1F7CFF7F33
:102A7000FF7F007C007C003C003E071FFF0FFE0331
:102A800000000000000000000000FF01E103C0039F
:102A9000C007C007C007FF7FFF7FC007C007C00790
:102AA000C007C007C007C007C007C007C007C007EE
:102AB000C007C00700000000000000000000000088
:102AC00000000000000000000000EF07FF1F7F3E35
:102AD0001F3C1F7C1F7C1F781F781F781F7C1F7C6A
:102AE0003F3C7F3EFF1FDF0F1E001E001E007C3894
:102AF000F83F003C003C003C003C003C003CFC3DFE
:102B0000FE3F9E3F1F3F1F3E1F3C1F3C1F3C1F3C84
:102B10001F3C1F3C1F3C1F3C1F3C1F3C0000000093
:102B2000000000000000F001F001000000000000C3
:102B30000000E07FE07FE001E001E001E001E00172
:102B4000E001E001E001E001E001E001E001E0017D
:102B500000000000000000000000F800F800000085
:102B6000000000000000F83FF83FF800F800F8000F
:102B7000F800F800F800F800F800F800F800F80095
:102B8000F800F800F800F800F000F071E07F003C79
:102B9000003C003C003C003C003C1F3C3E3C7C3C7C
:102BA000F83CF03DE03DC03FC03FE03FF03DF83C29
:102BB0007C3C3E3C1F3C1F3C00000000000000002D
:102BC0000000F07FF001F001F001F001F001F001F0
:102BD000F001F001F001F001F001F001F001F0016D
:102BE000F001F001F001F001F001F001000000003F
:102BF00000000000000000000000000000000000D5
:102C000000009EF7FFFFFFFFFFFFE7FBE7F9C7F1BB
:102C1000C7F1C7F1C7F1C7F1C7F1C7F1C7F1C7F1F4
:102C200000000000000000000000000000000000A4
:102C3000000000000000FC3DFE3F9E3F1F3F1F3E86
:102C40001F3C1F3C1F3C1F3C1F3C1F3C1F3C1F3CAC
:102C50001F3C1F3C000000000000000000000000BE
:102C600000000000000000000000F007FC1F3E3ED6
:102C70001F3C1F7C0F780F780F780F780F781F7C20
:102C80001F3C3E3EFC1FF00700000000000000005B
:102C90000000000000000000000000000000F83DFF
:102CA000FE3F3E3F1F3E0F3C0F3C0F3C0F3C0F3C96
:102CB0000F3C1F3C1E3E3E3FFC3FF83F003C003CAB
:102CC000003C003C003C0000000000000000000050
:102CD0000000EE07FE1F7E3E1E3C1E7C1E781E7806
:102CE0001E781E781E781E7C3E7C7E3EFE1FDE0F08
:102CF0001E001E001E001E001E000000000000003E
:102D00000000000000007F1FFF1FE71FC71F871F75
:102D1000001F001F001F001F001F001F001F001FBB
:102D2000001F001F00000000000000000000000065
:102D300000000000000000000000FC07FE1F0E1E47
:102D4000003E003E003FE01FFC07FE003E001E006C
:102D50001E003E3CFC3FF01F000000000000000091
:102D60000000000000000000800780078007FF7F50
:102D7000FF7F800780078007800780078007800724
:102D8000800780078007C007FF03FF0100000000E5
:102D90000000000000000000000000000000000033
:102DA00000001E3C1E3C1E3C1E3C1E3C1E3C1E3CAD
:102DB0001E3C1E3C1E3C3E3C7E3CFE3EFE1FDE0F8B
:102DC0000000000000000000000000000000000003
:102DD00000000000000007F00F780F781E3C1E3C3A
:102DE0001E3E3C1E3C1E780F780FF00FF007F007D8
:102DF000E003E0030000000000000000000000000D
:102E00000000000000000000000003F0E3F1E3F325
:102E1000E7F3F7F3F7F3F77F777F7F7F7F7F7F7F9E
:102E20003E3E3E3E3E3E3E3E0000000000000000B2
:102E300000000000000000000000000000000F7C07
:102E40001E3E3C3E3C1FF80FF007F007E003F00782
:102E5000F807F80F7C1E3E3E1F3C1F780000000064
:102E60000000000000000000000000000000000062
:102E7000000007F80F780F7C1E3C1E3C3C1E3C1ED9
:102E80003C1F780FF80FF007F007E003E003C003E2
:102E9000C003C0038007800F007F00000000000017
:102EA000000000000000FF3FFF3F1F003E007C00CD
:102EB000F800F001E003C007800F001F001E003C77
:102EC000FF7FFF7F00000000000000000000FE0107
:102ED000E003C003C003C003C003E001E001E00160
:102EE000C001C003803F803FC003C001E001E0019A
:102EF000E001C003C003C003C003E003FE017E0085
:102F00000000C001C001C001C001C001C001C0017A
:102F1000C001C001C001C001C001C001C001C001A9
:102F2000C001C001C001C001C001C001C001C00199
:102F3000C001C0010000C03FE003E001E001E0018A
:102F4000E001C001C003C003C001E001FE00FE00BB
:102F5000E001C001C003C003C001E001E001E001E5
:102F6000E001E003C03F003F00000000000000005F
:102F70000000000000000000000000000000000051
:102F8000073FC77FE773FFF17EF0000000000000FD
:102F90000000000000000000000000000000040A23
:102FA0000B0C3132334134353642373839432A300D
:102FB00023440000D82F000800000020100000006B
:102FC000EC010008E82F000810000020700A000043
:102FD0000C020008000000000B120000F60E0008B2
:082FE000101A0000521C000849
:040000050800018965
:00000001FF
