:020000040800F2
:10000000680600203902000877020008790200081B
:100010007B0200087D0200087F020008000000004B
:100020000000000000000000000000008102000845
:100030008302000800000000850200088702000813
:100040008902000889020008890200088902000864
:100050008902000889020008890200088902000854
:100060008902000889020008890200088902000844
:100070008902000889020008890200088902000834
:100080008902000889020008890200088902000824
:100090008902000889020008890200088902000814
:1000A0008902000889020008890200088902000804
:1000B00089020008890200088902000889020008F4
:1000C00089020008890200088902000889020008E4
:1000D00089020008890200088902000889020008D4
:1000E000410300088902000889020008890200080B
:1000F00089020008890200088902000889020008B4
:1001000089020008890200088902000889020008A3
:100110008902000889020008890200088902000893
:100120008902000889020008890200088902000883
:100130008902000889020008890200088902000873
:100140008902000889020008890200088902000863
:100150008902000889020008890200088902000853
:100160008902000889020008890200088902000843
:1001700089020008890200088902000800000000C6
:10018000890200088902000800F002F800F044F833
:1001900014A696E8000CB244B344DA4501D100F04D
:1001A0003BF8BAE80F000FA696E83000A5EB04056F
:1001B00004EB0607AAEB0704A7F101074FEA1515A0
:1001C0004FEA3414A4F10104AC4201D300F024F846
:1001D00013F0010F18BFFB1A43F0010300F001F800
:1001E000DBE71847B0030000C003000070470000C1
:1001F0000023002400250026103A28BF78C1FBD830
:10020000520728BF30C148BF0B6070471FB500F0D0
:10021000B4F91FBD10B510BD00F057F81146FFF737
:10022000F5FF00F09BF900F075F803B4FFF7F2FF5B
:1002300003BC00F07DF8000017481849184B99429C
:100240003CBF50F8042B41F8042BF8D3154B16494A
:100250004FF000028B4238BF43F8042BFAD3DFF88B
:100260004C00016841F470010160BFF34F8FBFF390
:100270006F8F0F480047FEE7FEE7FEE7FEE7FEE769
:10028000FEE7FEE7FEE7FEE7FEE7000009480A4951
:100290000A4A0B4B70470000A4050008000000202C
:1002A00000000020000000206806002088ED00E02B
:1002B000890100086800002068060020680200200C
:1002C00068020020704770477047754600F02CF8B0
:1002D000AE4605006946534620F00700854618B033
:1002E00020B5FFF7D3FFBDE820404FF000064FF0E8
:1002F00000074FF000084FF0000BAC46ACE8C00917
:10030000ACE8C009ACE8C009ACE8C00921F00701BD
:100310008D46704710B50446AFF300802046BDE817
:100320001040FFF782BF0000004870470000002027
:1003300001491820ABBEFEE726000200704700000E
:1003400040F21440C4F201000168890458BF7047AC
:100350001421C4F600010A6882F020020A600168D4
:1003600041F400510160704741F24C00C4F20200B8
:10037000016841F00401016040F60801C4F6000183
:1003800051F8082C22F0406241F8082C4A6822F00B
:1003900040624A600A6822F040620A600A6842F0DD
:1003A00000620A604EF20411CEF200014FF4807236
:1003B0000A60002281F82423416941F00101416172
:1003C0001420C4F20100016821F07001016001688D
:1003D00041F020010160D0F8EC1341F40051C0F865
:1003E000EC13D0F8F81341F40051C0F8F81370473B
:1003F00041F24C00C4F20200016841F001010160C9
:100400004FF09040016821F440610160016841F4BF
:10041000806101600820C4F60000016821F4406199
:100420000160016841F44061016050F8041C21F052
:10043000200140F8041C416821F44061416070478C
:1004400042F20001C4F20201086820F007000860CF
:100450000A6841F2000042F00202C4F202000A609F
:10046000016841F48071016001684905FCD541686B
:1004700021F0F8514160416841F0805141600168CC
:1004800021F08071016000BF01688901FCD4C1685E
:10049000142221F00301C160C16841F00201C16072
:1004A000C16862F30E21C160C168012262F30611C6
:1004B000C160C16821F0C061C160C16841F0807154
:1004C000C160016841F08071016000BF016889016D
:1004D000FCD5816821F003018160816841F003014E
:1004E000816000BF816801F00C010C29FAD181689C
:1004F00021F0F0018160816821F4E0618160816810
:1005000021F460518160016821F08061016000BFC9
:1005100001684901FCD4016921F4FE4101610169CE
:1005200041F4C0510161016941F400310161016987
:1005300041F480310161016841F08061016000BFD8
:1005400001684901FCD5D0F8881021F44001C0F8B9
:100550008810016E41F400110166704740F260009E
:10056000C2F200004FF0FF310160FFF769FFFFF7B3
:100570003FFFFFF7F9FE00BFFEE7F1EE100A4FF66E
:10058000FF71C0F2C03120EA010040F04070E1EE9E
:10059000100A7047A405000800000020680600004B
:0405A000F00100085E
:040000050800018965
:00000001FF
